:10008B00FA15FA67FB04FB90FC0CFC44FCACFD0975
:10009B00FD34FD82FDC8FE06FE22FE56FE85FE9A4D
:10000E00758901D2A9D2AF7590FFE590F46068E5CD
:10001E0090F424FE602124FE602224FC602324F848
:10002E00602424F0602524E0602624C06027247F0D
:10003E007026750A078021750A06801C750A0580D0
:10004E0017750A048012750A03800D750A0280085E
:10005E00750A018003E4F50AE50A25E0248BF58292
:10006E00E43400F583E493FC740193FDECF508AFE2
:0D007E00058F09D28C8093D2B7C28C808D83
:03000B000200B739
:0900B70085088C85098AB2B73274
:030000000200AB50
:0C00AB00787FE4F6D8FD75810A02000E93
:00000001FF
